S00D00004C616231432E7372656394
S11300000C9456000C946B000C946B000C946B00D5
S11300100C946B000C946B000C946B000C946B00B0
S11300200C946B000C946B000C946B000C946B00A0
S11300300C946B000C946B000C946B000C946B0090
S11300400C946B000C946B000C946B000C946B0080
S11300500C946B000C946B000C946B000C946B0070
S11300600C946B000C946B000C946B000C946B0060
S11300700C946B000C946B000C946B000C946B0050
S11300800C946B000C946B000C946B000C946B0040
S11300900C946B000C946B000C946B000C946B0030
S11300A00C946B000C946B000C946B0011241FBE19
S11300B0CFEFDAE0DEBFCDBF11E0A0E0B1E0E8E6CB
S11300C0F1E002C005900D92A030B107D9F70E946B
S11300D094000C94B2000C94000015B82FEF87EA3A
S11300E091E6215080409040E1F700C0000008955F
S11300F080E885B92FEF83ED90E321508040904054
S1130100E1F700C000000E946D00089580E185B908
S11301102FEF83ED90E3215080409040E1F700C041
S113012000000E946D00089580EF84B990E695B9AF
S113013090E39AB98BB989B18073803219F40E9423
S1130140860004C0803111F40E94780080E985B9EA
S11301502FEF80E792E0215080409040E1F700C00B
S10B01600000E9CFF894FFCF81
S9030000FC
