:100000000C9456000C946B000C946B000C946B00D9
:100010000C946B000C946B000C946B000C946B00B4
:100020000C946B000C946B000C946B000C946B00A4
:100030000C946B000C946B000C946B000C946B0094
:100040000C946B000C946B000C946B000C946B0084
:100050000C946B000C946B000C946B000C946B0074
:100060000C946B000C946B000C946B000C946B0064
:100070000C946B000C946B000C946B000C946B0054
:100080000C946B000C946B000C946B000C946B0044
:100090000C946B000C946B000C946B000C946B0034
:1000A0000C946B000C946B000C946B0011241FBE1D
:1000B000CFEFDAE0DEBFCDBF11E0A0E0B1E0E2E6D5
:1000C000F1E002C005900D92A030B107D9F70E946F
:1000D00094000C94AF000C94000015B82FEF87EA41
:1000E00091E6215080409040E1F700C00000089563
:1000F0000E946D0080E885B92FEF83ED90E32150D9
:1001000080409040E1F700C0000008950E946D001B
:1001100080E185B92FEF83ED90E32150804090403E
:10012000E1F700C00000089580EF84B91AB88BB9D8
:1001300089B18073809585FF03C00E94860003C04B
:1001400084FD0E94780080E985B92FEF80E792E076
:10015000215080409040E1F700C00000E9CFF894C2
:02016000FFCFCF
:00000001FF
