:020000020000FC
:0200000055C0E9
:1000AC000FEF0DBF00E10EBF222400000000000086
:1000BC00000024D00000000000000000FFCFA0E1F1
:1000CC00B1E008950895BF93AF93DF93CF93FF935F
:1000DC00EF930F930F921F923F924F922F931F9378
:1000EC001F912F914F903F901F900F900F91EF9178
:1000FC00FF91CF91DF91AF91BF910895BF93AF93D3
:10010C00DF93CF93FF93EF930F930F921F923F9236
:10011C004F922F931F93F0E0E4EFFF0FEE0FF21DC1
:10012C00D1E0C8E113E0059109931A95E1F7F0E0ED
:10013C00E6EFFF0FEE0FF21DD1E0CBE113E00591DE
:10014C0009931A95E1F71F912F914F903F901F90B3
:10015C000F900F91EF91FF91CF91DF91AF91BF91E4
:10016C00089508953F924F921F920F922F92BF9332
:10017C00AF93DF93CF93FF93EF931F932F9322248F
:10018C00C2E0D1E0E4E0F1E012E0A0E0B1E022E076
:10019C003D904880349C31904190030C141C30806D
:1001AC00321C30821292029231962A9589F731973D
:1001BC0021961A9551F72F911F91EF91FF91CF91A5
:1001CC00DF91AF91BF912F900F901F904F903F9068
:1001DC0008950895BAFCFFFFB9FC20E4FFFFFF006F
:0A01EC00FFFFFF00BAFC2220BB2138
:00000001FF
