:020000020000FC
:0200000055C0E9
:1000AC000FEF0DBF00E10EBF222477D000000AD065
:1000BC0000009AD00000000049D0000000000000B1
:1000CC000000FFCF0F933F92BF93DF93FF93AF934B
:1000DC00CF93EF9300278894A0E1B1E0C2E1D1E087
:1000EC00E0E2F1E03D90030D3990030D0193002700
:1000FC003D90031D3990030D0193002710F001E092
:10010C000083EF91CF91AF91FF91DF91BF913F9021
:10011C000F9108950895BF93AF93DF93CF93FF93FF
:10012C00EF930F930F921F923F924F922F931F9327
:10013C001F912F914F903F901F900F900F91EF9127
:10014C00FF91CF91DF91AF91BF910895DF93CF9342
:10015C00FF93EF930F932F931F93F1E0EEE5FF0FB7
:10016C00EE0FF21DD1E0C8E113E0059109931A9549
:10017C00E1F7F1E0E0E6FF0FEE0FF21DD1E0CBE18D
:10018C0013E0059109931A95E1F71F912F910F91A7
:10019C00EF91FF91CF91DF910895DF93CF93FF9370
:1001AC00EF930F932F931F93F1E0EAE5FF0FEE0F00
:1001BC00F21DD1E0C0E112E0059109931A95E1F727
:1001CC00F1E0EBE5FF0FEE0FF21DD1E0C2E112E022
:1001DC00059109931A95E1F71F912F910F91EF91CA
:1001EC00FF91CF91DF910895DF93CF93FF93EF931E
:1001FC000F932F931F93F1E0ECE5FF0FEE0FF21D21
:10020C00D1E0C4E112E0059109931A95E1F7F1E010
:10021C00EDE5FF0FEE0FF21DD1E0C6E112E0059106
:10022C0009931A95E1F71F912F910F91EF91FF917F
:10023C00CF91DF91089508953F924F921F920F92A4
:10024C002F92BF93AF93DF93CF93FF93EF931F93B3
:10025C002F932224C2E0D1E0E4E0F1E012E0A0E030
:10026C00B1E022E03D904880349C31904190030CE9
:10027C00141C3080321C30821292029231962A95D4
:10028C0089F7319721961A9551F72F911F91EF917C
:10029C00FF91CF91DF91AF91BF912F900F901F9055
:1002AC004F903F9008950895BAFCFFFFB9FC20E4ED
:0E02BC00FFFFFF00FFFFFF00BAFC2220BB2166
:00000001FF
