:020000020000FC
:0200000055C0E9
:1000AC000FEF0DBF00E10EBF2224E2D000000DD0F7
:1000BC00000005D1000031D00000B3D000004ED0BC
:1000CC00000025D100000000FFCF0F933F92BF939B
:1000DC00DF93FF93AF93CF93EF9300278894A0E126
:1000EC00B1E0C2E1D1E0E0E2F1E03D90030D3990E6
:1000FC00030D019300273D90031D3990030D0193CF
:10010C00002710F001E00083EF91CF91AF91FF91A8
:10011C00DF91BF913F900F9108950F933F924F92B3
:10012C00BF93DF93FF93AF93CF93EF93A4E1B1E031
:10013C00C6E1D1E0E0E3F1E03D9049903418319212
:10014C003C90488034083082EF91CF91AF91FF9171
:10015C00DF91BF914F903F900F910895BF93AF9354
:10016C00DF93CF93FF93EF930F930F921F923F92D6
:10017C004F922F931F93A0E4B1E02D922D922D92CC
:10018C002C92E8E1F1E0CBE1D1E0A0E4B1E03080E9
:10019C004880349C31D011964980349C2DD03180CC
:1001AC004880349C29D0119630804A80349C24D0CD
:1001BC0031804980349C20D032804880349C1CD0C3
:1001CC00119631804A80349C17D032804980349CFF
:1001DC0013D0119632804A80349C0ED01F912F91EF
:1001EC004F903F901F900F900F91EF91FF91CF91F7
:1001FC00DF91AF91BF910895AF93BF930F921F9270
:10020C003F923C90300C3D923080301C20F43C905E
:10021C00321C3D92FBCF3F901F900F90BF91AF913E
:10022C000895DF93CF93FF93EF930F932F931F9327
:10023C00F2E0E9E1FF0FEE0FF21DD1E0C8E113E0AF
:10024C00059109931A95E1F7F2E0EBE1FF0FEE0F40
:10025C00F21DD1E0CBE113E0059109931A95E1F77A
:10026C001F912F910F91EF91FF91CF91DF910895F5
:10027C00DF93CF93FF93EF930F932F931F93F2E0A2
:10028C00E5E1FF0FEE0FF21DD1E0C0E112E00591A8
:10029C0009931A95E1F7F2E0E6E1FF0FEE0FF21D7C
:1002AC00D1E0C2E112E0059109931A95E1F71F9193
:1002BC002F910F91EF91FF91CF91DF910895DF93E3
:1002CC00CF93FF93EF930F932F931F93F2E0E7E1FC
:1002DC00FF0FEE0FF21DD1E0C4E112E0059109937E
:1002EC001A95E1F7F2E0E8E1FF0FEE0FF21DD1E015
:1002FC00C6E112E0059109931A95E1F71F912F9130
:10030C000F91EF91FF91CF91DF9108950895DF93B5
:10031C00CF93FF93EF930F932F931F932CD0F2E077
:10032C00EDE1FF0FEE0FF21DD1E0C4E112E00591FB
:10033C0009931A95E1F7F2E0EEE1FF0FEE0FF21DD3
:10034C00D1E0C6E112E0059109931A95E1F7F2E0CC
:10035C00EFE1FF0FEE0FF21DD1E0C2E112E00591CB
:10036C0009931A95E1F71F912F910F91EF91FF913E
:10037C00CF91DF910895AF93BF93CF93DF93EF931A
:10038C00FF93A0E2B1E0C0E3D1E0E0E4F1E02D9214
:10039C002D922C92299228822192219221922082B4
:1003AC00FF91EF91DF91CF91BF91AF9108953F9263
:1003BC004F921F920F922F92BF93AF93DF93CF93D5
:1003CC00FF93EF931F932F932224C2E0D1E0E4E03C
:1003DC00F1E012E0A0E0B1E022E03D904880349CD6
:1003EC0031904190030C141C3080321C30821292DC
:1003FC00029231962A9589F7319721961A9551F7E1
:10040C002F911F91EF91FF91CF91DF91AF91BF9100
:10041C002F900F901F904F903F9008950895BAFC25
:10042C00FFFFB9FC20E4FFFFFF00FFFFFF00BAFC59
:04043C002220BB219E
:00000001FF
