:020000020000FC
:0200000055C0E9
:1000AC0022240000000000000000000000000000FE
:1000BC000000FFCFA0E1B1E00895089508950895E0
:1000CC003F924F921F920F922F92BF93AF93DF9359
:1000DC00CF93FF93EF931F932F932224C2E0D1E091
:1000EC00E4E0F1E012E0A0E0B1E022E03D904880D5
:1000FC00349C31904190030C141C3080321C3082A3
:10010C001292029231962A9589F7319721961A9577
:10011C0051F72F911F91EF91FF91CF91DF91AF91FB
:10012C00BF912F900F901F904F903F90089508957E
:10013C00BAFCFFFFB9FC20E4FFFFFF00FFFFFF004C
:06014C00BAFC2220BB21D9
:00000001FF
