:020000020000FC
:0200000055C0E9
:1000AC000FEF0DBF00E10EBF2224E3D000000ED0F5
:1000BC00000006D1000032D00000B4D000004FD0B8
:1000CC00000040D1000023D10000FFCF0F933F92DE
:1000DC00BF93DF93FF93AF93CF93EF930027889455
:1000EC00A0E1B1E0C2E1D1E0E0E2F1E03D90030D2E
:1000FC003990030D019300273D90031D3990030D9A
:10010C000193002710F401E00083EF91CF91AF91A0
:10011C00FF91DF91BF913F900F9108950F933F9204
:10012C004F92BF93DF93FF93AF93CF93EF93A4E1E1
:10013C00B1E0C6E1D1E0E0E3F1E03D904990341844
:10014C0031923C90488034083082EF91CF91AF913E
:10015C00FF91DF91BF914F903F900F910895BF9306
:10016C00AF93DF93CF93FF93EF930F930F921F9265
:10017C003F924F922F931F93A0E4B1E02D922D92BA
:10018C002D922D922D922C92E8E1F1E0CBE1D1E071
:10019C00A0E4B1E030804880349C32D0119630809D
:1001AC004980349C2DD031804880349C29D01196C4
:1001BC0030804A80349C24D031804980349C20D0BB
:1001CC0032804880349C1CD0119631804A80349CFB
:1001DC0017D032804980349C13D0119632804A80DB
:1001EC00349C0ED01F912F914F903F901F900F90E9
:1001FC000F91EF91FF91CF91DF91AF91BF91089546
:10020C00AF93BF933F923C90300C3D923C90311C8D
:10021C003D9220F43C90321C3D92FBCF3F90BF911D
:10022C00AF910895DF93CF93FF93EF930F932F9399
:10023C001F93F2E0E6E3FF0FEE0FF21DD1E0C8E1F1
:10024C0013E0059109931A95E1F7F2E0E8E3FF0F4B
:10025C00EE0FF21DD1E0CBE113E0059109931A9555
:10026C00E1F71F912F910F91EF91FF91CF91DF91BA
:10027C000895DF93CF93FF93EF930F932F931F93D7
:10028C00F2E0E2E3FF0FEE0FF21DD1E0C0E112E06D
:10029C00059109931A95E1F7F2E0E3E3FF0FEE0FF6
:1002AC00F21DD1E0C2E112E0059109931A95E1F734
:1002BC001F912F910F91EF91FF91CF91DF910895A5
:1002CC00DF93CF93FF93EF930F932F931F93F2E052
:1002DC00E4E3FF0FEE0FF21DD1E0C4E112E0059153
:1002EC0009931A95E1F7F2E0E5E3FF0FEE0FF21D2B
:1002FC00D1E0C6E112E0059109931A95E1F71F913F
:10030C002F910F91EF91FF91CF91DF91089506DF1F
:10031C00A0E3B1E0C0E1D1E00D9109930C91088309
:10032C00D5DEA0E2B1E0C8E1D1E0EBE1F1E00D9166
:10033C00099301930D91099301930C910883008308
:10034C000EDF0895DF93CF93FF93EF930F932F93CB
:10035C001F932CD0F2E0EAE3FF0FEE0FF21DD1E079
:10036C00C4E112E0059109931A95E1F7F2E0EBE391
:10037C00FF0FEE0FF21DD1E0C6E112E005910993DB
:10038C001A95E1F7F2E0ECE3FF0FEE0FF21DD1E06E
:10039C00C2E112E0059109931A95E1F71F912F9193
:1003AC000F91EF91FF91CF91DF910895AF93BF9390
:1003BC00CF93DF93EF93FF93A0E2B1E0C0E3D1E0E2
:1003CC00E0E4F1E02D922D922C9229922882219238
:1003DC0021922192219221922082FF91EF91DF9123
:1003EC00CF91BF91AF9108953F924F921F920F9270
:1003FC002F92BF93AF93DF93CF93FF93EF931F9302
:10040C002F932224C2E0D1E0E4E0F1E012E0A0E07E
:10041C00B1E022E03D904880349C31904190030C37
:10042C00141C3080321C30821292029231962A9522
:10043C0089F7319721961A9551F72F911F91EF91CA
:10044C00FF91CF91DF91AF91BF912F900F901F90A3
:10045C004F903F9008950895BAFCFFFFB9FC20E43B
:0E046C00FFFFFF00FFFFFF00BAFC2220BB21B4
:00000001FF
